S01D00004763634170706C69636174696F6E325F736C6176652E73726563DA
S11300000C9434000C9446000C9446000C94460066
S11300100C9446000C9446000C9446000C94460044
S11300200C9446000C9446000C9446000C94460034
S11300300C9446000C9446000C9446000C94460024
S11300400C9446000C9446000C9446000C94460014
S11300500C9446000C9446000C9446000C94460004
S11300600C9446000C94460011241FBECFEFD8E038
S1130070DEBFCDBF21E0A0E0B1E001C01D92A13000
S1130080B207E1F70E9475000C9498000C940000EC
S11300908093C40086E08093C20088E18093C1000D
S11300A00895E0ECF0E090819064908302C0809326
S11300B0C6009091C00095FDFACF08958091C600C6
S11300C08E3841F0883951F08A3771F485B18160F6
S11300D085B9089585B1826085B9089585B1846034
S11300E085B981E080930001089582E60E9448006A
S11300F08FEC97E00197F1F700C0000084B18760AE
S113010084B90BC00E945E009FEF29E688E19150FC
S113011020408040E1F700C0000080910001882366
S113012089F38CEB90E00E94510080E090E0089508
S1070130F894FFCF6D
S9030000FC
