:100000000C9434000C9449000C9449000C94490061
:100010000C9449000C9449000C9449000C9449003C
:100020000C9449000C9449000C9449000C9449002C
:100030000C9449000C9449000C9449000C9449001C
:100040000C9449000C9449000C9449000C9449000C
:100050000C9449000C9449000C9449000C944900FC
:100060000C9449000C94490011241FBECFEFD8E036
:10007000DEBFCDBF11E0A0E0B1E0E8E5F2E002C0F4
:1000800005900D92A431B107D9F70E94FD000C94A0
:100090002A010C94000095B19F70282F207F922B8D
:1000A00095B995B19E7F95B995B1926095B932E0B9
:1000B0003A95F1F700C095B19D7F95B9EFE8F1E071
:1000C0003197F1F700C0000025B1F0E18F9FC0012A
:1000D0001124922F9F70892B85B985B1826085B9D3
:1000E00032E03A95F1F700C085B18D7F85B98FE98F
:1000F0009FE00197F1F700C0000008958FEF84B9E9
:100100008FE39CE90197F1F700C0000083E390E0E2
:100110000E944B0082E390E00E944B0088E290E056
:100120000E944B008CE090E00E944B0086E090E043
:100130000E944B0081E090E00E944B00089595B131
:100140009F70282F207F922B95B995B1916095B91A
:1001500095B1926095B932E03A95F1F700C095B14A
:100160009D7F95B9EFE8F1E03197F1F700C000000D
:1001700025B1F0E18F9FC0011124922F9F70892B30
:1001800085B985B1826085B932E03A95F1F700C052
:1001900085B18D7F85B98FE99FE00197F1F700C0A8
:1001A000000008950F931F93CF93DF938C01C0E05D
:1001B000D0E003C00E949F002196F801EC0FFD1FC4
:1001C00080818111F7CFDF91CF911F910F91089519
:1001D000F999FECF92BD81BD60BD8FB384608FBBA6
:1001E0008FB382608FBB0895F999FECF92BD81BD18
:1001F0008FB381608FBB80B508951F93CF93DF933A
:100200000E947E0080E091E00E94D200C6E1D0E032
:1002100011E417C0612FCE010E94E80080EC0E941B
:100220004B00CE010E94F4000E949F002FEF84E358
:100230009CE0215080409040E1F700C000001F5F2B
:100240002196C033D10534F380E090E0DF91CF9167
:080250001F910895F894FFCFFF
:10025800507261637469636520454550524F4D2063
:040268003031000031
:00000001FF
