:100000000C9434000C943E000C943E000C943E0082
:100010000C943E000C943E000C943E000C943E0068
:100020000C943E000C943E000C943E000C943E0058
:100030000C943E000C943E000C943E000C943E0048
:100040000C943E000C943E000C943E000C943E0038
:100050000C943E000C943E000C943E000C943E0028
:100060000C943E000C943E0011241FBECFEFD8E04C
:10007000DEBFCDBF0E945E000C94A4000C94000073
:100080008093C40086E08093C20088E18093C10021
:100090000895E0ECF0E090819064908302C080933A
:1000A000C6009091C00095FDFACF08958091C600DA
:1000B0008C3B19F485B1826085B9089582E60E946F
:1000C00040008FEC97E00197F1F700C0000084B189
:1000D000826084B98AE790E00E9449009FEF23ED97
:1000E00080E3915020408040E1F700C000008EE89E
:1000F00090E00E9449009FEF23ED80E39150204063
:100100008040E1F700C0000088E990E00E944900CB
:100110009FEF23ED80E3915020408040E1F700C045
:1001200000000DC00E94560087EC90E00197F1F7A7
:1001300000C00000E0ECF0E080818F778083809148
:0C014000C00088237CF3FBCFF894FFCFB5
:00000001FF
