S015000070726F6A6563743031303432332E73726563EE
S11300000C9434000C9449000C9449000C9449005D
S11300100C9449000C9449000C9449000C94490038
S11300200C9449000C9449000C9449000C94490028
S11300300C9449000C9449000C9449000C94490018
S11300400C9449000C9449000C9449000C94490008
S11300500C9449000C9449000C9449000C944900F8
S11300600C9449000C94490011241FBECFEFD8E032
S1130070DEBFCDBF12E0A0E0B1E0E6E4F7E002C0ED
S113008005900D92A63EB107D9F70E9464020C9424
S1130090A1030C94000085B988B18F7D88B988B11B
S11300A08F7E88B988B1886088B98DE08A95F1F728
S11300B0000088B1877F88B98DE08A95F1F7000048
S11300C0089585B988B1806288B988B18F7E88B96E
S11300D088B1886088B98DE08A95F1F7000088B10D
S11300E0877F88B98DE08A95F1F7000008958FEF36
S11300F084B987B988B1876088B98FE39CE901978F
S1130100F1F700C000008EE30E944B0080E40E94DF
S11301104B0088EB0E944B0080EC0E944B008FE365
S11301200E944B0008950F931F93CF93DF9388B1E0
S1130130866088B900E010E010C088EB800F0E9450
S11301404B00C0E0D0E004C080E00E946100219632
S1130150C034D105CCF30F5F1F4F083011056CF389
S113016080E40E944B0088EB0E944B00DF91CF910A
S11301701F910F9108952F923F924F925F926F9229
S11301807F928F929F92AF92BF92CF92DF92EF9223
S1130190FF920F931F93CF93DF93CDB7DEB72A97C8
S11301A00FB6F894DEBF0FBECDBF78876F83282FBC
S11301B030E03E832D83C90188549F4F9C838B83F9
S11301C098B1926098B998B19B7F98B90E944B00FE
S11301D0512C312C212C0F2EFFE34F2EF02D1A869B
S11301E019861A8219824AC16D807E807194619445
S11301F071087694762C66247794679495E0691A4E
S11302009CEF790AE985FA856E167F0608F440C1E9
S1130210803209F048C050C0A984BA84AE0CBF1C17
S113022020E030E040E05FE3652D732D822D942DB6
S11302300E947102C62ED72E082F192F0E94DD02AC
S11302407695762F662777956795A616B70639F5BE
S1130250F5E0EF16F10481F180E40E944B0098B1BF
S113026082E0892788B998B184E0892788B92B81ED
S11302703C81B90180E090E00E941303252D332DC9
S1130280422D542D0E9471020E94E402862F0E9486
S11302904B005C2C3D2C202E412EBA86A9863FEFC4
S11302A0E31AF30A03C0EE24E394F12C96E0E91672
S11302B0F10408F4B1CF00C089859A8568167906DF
S11302C008F4E6C0F4018081803209F44BC000E0F8
S11302D010E096C0F401808190E08097FC01EE0F5D
S11302E0FF1FEE0FFF1FE80FF91FE050FF4FE00F55
S11302F0F11F80810E94610029853A852F5F3F4F5D
S11303003A872987C9018F739927892B41F598B1B9
S113031082E0892788B998B184E0892788B9EB817C
S1130320FC81BF0180E090E00E941303252D332D52
S1130330422D542D0E9471020E94E402862F0E94D5
S11303404B0020E030E040E05FE3652D732D822D0B
S1130350942D0E947102562E372E282E492E0F5F9F
S11303601F4F02C000E010E00530110508F4B2CFC1
S11303707FC0F401808190E08097FC01EE0FFF1FA5
S1130380EE0FFF1FE80FF91FE050FF4FE00FF11FC2
S113039080810E94610029853A852F5F3F4F3A870B
S11303A02987C9018F739927892B41F598B182E078
S11303B0892788B998B184E0892788B9EB81FC81C1
S11303C0BF0180E090E00E941303252D332D422DC0
S11303D0542D0E9471020E94E402862F0E944B0059
S11303E020E030E040E05FE3652D732D822D942DF5
S11303F00E947102562E372E282E492E0F5F1F4F52
S11304000530110508F4B5CF80E00E9461008985AC
S11304109A8501969A8789878F739927892B41F545
S113042098B182E0892788B998B184E0892788B98E
S1130430EB81FC81BF0180E090E00E941303252D35
S1130440332D422D542D0E9471020E94E402862F06
S11304500E944B0020E030E040E05FE3652D732D07
S1130460822D942D0E947102562E372E282E492E4D
S113047029813A812F5F3F4F3A8329838F80988463
S113048089819A81880E991EF40180818111ACCEF4
S113049080E40E944B002A960FB6F894DEBF0FBE8C
S11304A0CDBFDF91CF911F910F91FF90EF90DF901F
S11304B0CF90BF90AF909F908F907F906F905F9000
S11304C04F903F902F9008950E9477000E949300D0
S11304D060EE72E080E00E94BB0080E090E008954E
S11304E05058BB27AA270E9488020C9467030E94D5
S11304F0590338F00E94600320F039F49F3F19F447
S113050026F40C9456030EF4E095E7FB0C94500388
S1130510E92F0E94780358F3BA1762077307840718
S1130520950720F079F4A6F50C949A030EF4E0955F
S11305300B2EBA2FA02D0B01B90190010C01CA0199
S1130540A0011124FF27591B99F0593F50F4503E44
S113055068F11A16F040A22F232F342F4427585F36
S1130560F3CF469537952795A795F0405395C9F74E
S11305707EF41F16BA0B620B730B840BBAF0915006
S1130580A1F0FF0FBB1F661F771F881FC2F70EC0A5
S1130590BA0F621F731F841F48F487957795679578
S11305A0B795F7959E3F08F0B0CF9395880F08F064
S11305B09927EE0F9795879508950E94E402689411
S11305C0B1110C949B0308950E94800388F09F57F7
S11305D098F0B92F9927B751B0F0E1F0660F771F63
S11305E0881F991F1AF0BA95C9F714C0B13091F059
S11305F00E949A03B1E008950C949A03672F782F10
S11306008827B85F39F0B93FCCF38695779567951D
S1130610B395D9F73EF490958095709561957F4F89
S11306208F4F9F4F0895E89409C097FB3EF490952F
S11306308095709561957F4F8F4F9F4F9923A9F0B7
S1130640F92F96E9BB279395F69587957795679546
S1130650B795F111F8CFFAF4BB0F11F460FF1BC08A
S11306606F5F7F4F8F4F9F4F16C0882311F096E91D
S113067011C0772321F09EE8872F762F05C06623CB
S113068071F096E8862F70E060E02AF09A95660F84
S1130690771F881FDAF7880F9695879597F908953D
S11306A097F99F6780E870E060E008959FEF80EC21
S11306B0089500240A9416161706180609060895C4
S11306C000240A9412161306140605060895092E2A
S11306D00394000C11F4882352F0BB0F40F4BF2B99
S11306E011F460FF04C06F5F7F4F8F4F9F4F0895D9
S11306F057FD9058440F551F59F05F3F71F04795CF
S1130700880F97FB991F61F09F3F79F087950895B3
S1130710121613061406551FF2CF4695F1DF08C0D2
S1130720161617061806991FF1CF869571056105EF
S113073008940895E894BB2766277727CB0197F997
S10907400895F894FFCFB8
S1130746000000000000005F00000007000700141E
S11307567F147F14242A7F2A1223130864623649DD
S11307665522500005030000001C224100004122CE
S11307761C0014083E081408083E080800503000FF
S11307860008080808080060600000201008040239
S11307963E5149453E00427F40004261514946214F
S11307A641454B311814127F1027454545393C4ABB
S11307B6494930017109050336494949360649490B
S11307C6291E003636000000563600000814224161
S11307D600141414141400412214080201510906C9
S11307E6324979413E7E1111117E7F494949363E8F
S11307F6414141227F4141221C7F494949417F09A8
S11308060909013E4149497A7F0808087F00417F6A
S113081641002040413F017F081422417F4040406F
S1130826407F020C027F7F0408107F3E4141413E17
S11308367F090909063E4151215E7F091929464669
S11308464949493101017F01013F4040403F1F2092
S113085640201F3F4038403F631408146307087064
S113086608076151494543007F41410002040810CD
S1130876200041417F000402010204404040404000
S1130886000102040020545454787F484444383804
S113089644444420384444487F3854545418087E09
S11308A60901020C5252523E7F0804047800447D2A
S11308B640002040443D007F1028440000417F4012
S11308C6007C041804787C080404783844444438CA
S11308D67C14141408081414187C7C0804040848AE
S11308E654545420043F4440203C4040207C1C2067
S11308F640201C3C4030403C44281028440C5050B6
S1130906503C4464544C44000836410000007F00C7
S11309160000413608001008081008784641467859
S109092641746D656C00D4
S9030000FC
