:100000000C9434000C943E000C943E000C943E0082
:100010000C943E000C943E000C943E000C943E0068
:100020000C943E000C943E000C943E000C943E0058
:100030000C943E000C943E000C943E000C943E0048
:100040000C943E000C943E000C943E000C943E0038
:100050000C943E000C943E000C943E000C943E0028
:100060000C943E000C943E0011241FBECFEFD8E04C
:10007000DEBFCDBF0E9458000C945A000C940000C3
:1000800081E08AB981E08BB92FEF80E792E02150BF
:1000900080409040E1F700C000001BB82FEF80E7E0
:1000A00092E0215080409040E1F700C00000EACF8C
:0800B0000E944000F894FFCF0C
:00000001FF
